:100000000C945D000C9485000C9485000C94850084
:100010000C9485000C9485000C9485000C9485004C
:100020000C9485000C9485000C9485000C9485003C
:100030000C9485000C9485000C9485000C9485002C
:100040000C94CB020C9485000C9499020C947302CE
:100050000C9485000C9485000C9485000C9485000C
:100060000C9485000C9485000000000024002700FB
:100070002A0000000000250028002B0004040404CE
:100080000404040402020202020203030303030342
:10009000010204081020408001020408102001021F
:1000A00004081020000000080002010000030407FB
:1000B0000000000000000000830411241FBECFEFE9
:1000C000D8E0DEBFCDBF11E0A0E0B1E0EEE1FAE0A4
:1000D00002C005900D92A433B107D9F721E0A4E343
:1000E000B1E001C01D92AE3DB207E1F710E0CDE5F1
:1000F000D0E004C02197FE010E940705CC35D1074E
:10010000C9F70E9415030C940D050C940000EDEA4C
:10011000F0E02491E9E9F0E09491E5E8F0E0E49181
:10012000EE23C9F0222339F0233001F1A8F4213065
:1001300019F1223029F1F0E0EE0FFF1FEE58FF4FCA
:10014000A591B4912FB7F894EC91811126C09095A8
:100150009E239C932FBF08952730A9F02830C9F023
:10016000243049F7209180002F7D03C0209180002A
:100170002F7720938000DFCF24B52F7724BDDBCFEE
:1001800024B52F7DFBCF2091B0002F772093B000B6
:10019000D2CF2091B0002F7DF9CF9E2BDACFAF9236
:1001A000BF92CF92DF92EF92FF920F931F93CF9364
:1001B000DF936C017B018B01040F151FEB015E01C6
:1001C000AE18BF08C017D10759F06991D601ED915B
:1001D000FC910190F081E02DC6010995892B79F7FA
:1001E000C501DF91CF911F910F91FF90EF90DF90AC
:1001F000CF90BF90AF900895FC01538D448D252F73
:1002000030E0842F90E0821B930B541710F0CF96B0
:10021000089501970895FC01918D828D981761F0E2
:10022000A28DAE0FBF2FB11D5D968C91928D9F5FF9
:100230009F73928F90E008958FEF9FEF0895FC01D8
:10024000918D828D981731F0828DE80FF11D858D8B
:1002500090E008958FEF9FEF0895FC01918D228D1E
:10026000892F90E0805C9F4F821B91098F739927A3
:10027000089581E491E00E942D0121E0892B09F489
:1002800020E0822F089580E090E0892B29F00E94E1
:10029000390181110C9400000895FC01A48DA80F70
:1002A000B92FB11DA35ABF4F2C91848D90E00196B8
:1002B0008F739927848FA689B7892C93A089B189D8
:1002C0008C91837080648C93938D848D981306C079
:1002D0000288F389E02D80818F7D80830895EF92DD
:1002E000FF920F931F93CF93DF93EC0181E0888FF0
:1002F0009B8D8C8D98131AC0E889F989808185FFC0
:1003000015C09FB7F894EE89FF896083E889F98961
:1003100080818370806480839FBF81E090E0DF9163
:10032000CF911F910F91FF90EF900895F62E0B8DB6
:1003300010E00F5F1F4F0F731127E02E8C8D8E1171
:100340000CC00FB607FCFACFE889F989808185FFD8
:10035000F5CFCE010E944D01F1CFEB8DEC0FFD2FBB
:10036000F11DE35AFF4FF0829FB7F8940B8FEA8993
:10037000FB8980818062CFCFCF93DF93EC01888DA2
:100380008823B9F0AA89BB89E889F9898C9185FD10
:1003900003C0808186FD0DC00FB607FCF7CF8C919E
:1003A00085FFF2CF808185FFEDCFCE010E944D0108
:1003B000E9CFDF91CF9108953FB7F894809139014B
:1003C00090913A01A0913B01B0913C0126B5A89BC8
:1003D00005C02F3F19F00196A11DB11D3FBFBA2FD7
:1003E000A92F982F8827BC01CD01620F711D811D97
:1003F000911D42E0660F771F881F991F4A95D1F71C
:100400000895FC0101900020E9F73197AF01481BE6
:10041000590BBC0181E491E00C94CF008F929F9224
:10042000AF92BF920F931F93CF93DF93CDB7DEB7F9
:10043000A1970FB6F894DEBF0FBECDBF19A2423010
:1004400008F44AE08E010F5D1F4F842E912CB12CD1
:10045000A12CA50194010E94CF04E62FB901CA0185
:10046000EA30F4F4E05DD801EE938D01232B242BC8
:10047000252B79F790E080E0109719F0CD010E94CC
:100480000102A1960FB6F894DEBF0FBECDBFDF917B
:10049000CF911F910F91BF90AF909F908F90089533
:1004A000E95CE1CFCF92DF92EF92FF92CF93DF939F
:1004B0006B017C016DE281E491E00E946F01EC012F
:1004C00066277727CB016C197D098E099F094AE0C1
:1004D0000E940E028C0F9D1FDF91CF91FF90EF9035
:1004E000DF90CF9008951F920F920FB60F921124B4
:1004F0002F933F934F935F936F937F938F939F932C
:10050000AF93BF93EF93FF9381E491E00E944D017D
:10051000FF91EF91BF91AF919F918F917F916F91DB
:100520005F914F913F912F910F900FBE0F901F90B1
:1005300018951F920F920FB60F9211242F938F933D
:100540009F93EF93FF93E0915101F09152018081CD
:10055000E0915701F091580182FD1BC0908180917C
:100560005A018F5F8F7320915B01821741F0E091F8
:100570005A01F0E0EF5BFE4F958F80935A01FF9197
:10058000EF919F918F912F910F900FBE0F901F9021
:1005900018958081F4CF1F920F920FB60F921124FD
:1005A0002F933F938F939F93AF93BF938091350188
:1005B00090913601A0913701B0913801309134010A
:1005C00023E0230F2D3758F50196A11DB11D20936F
:1005D00034018093350190933601A0933701B09395
:1005E00038018091390190913A01A0913B01B0917D
:1005F0003C010196A11DB11D8093390190933A01F0
:10060000A0933B01B0933C01BF91AF919F918F911B
:100610003F912F910F900FBE0F901F90189526E8D5
:10062000230F0296A11DB11DD2CF789484B58260AC
:1006300084BD84B5816084BD85B5826085BD85B586
:10064000816085BD80916E00816080936E00109204
:10065000810080918100826080938100809181007F
:100660008160809381008091800081608093800010
:100670008091B10084608093B1008091B00081606E
:100680008093B00080917A00846080937A0080919A
:100690007A00826080937A0080917A0081608093F2
:1006A0007A0080917A00806880937A001092C1006D
:1006B000E0915101F091520182E08083E0914D017F
:1006C000F0914E011082E0914F01F09150018FECBA
:1006D000808310925901E0915501F091560186E016
:1006E0008083E0915301F091540180818061808387
:1006F000E0915301F0915401808188608083E09102
:100700005301F0915401808180688083E09153010E
:10071000F091540180818F7D808344244A9473E05A
:10072000572E612C712CE5E82E2EE0E03E2E0DEACE
:1007300010E0C0E0D0E081E00E94870020E4209338
:100740007C0080917A00806480937A0080917A00A6
:1007500086FDFCCF80917800A0917900BA2FA82F58
:10076000B0934001A0933F012FEF30E00E940005BD
:10077000A30192010E94B004A90130933E0120938D
:100780003D01E9E9F0E0F490F1018491882399F0CA
:1007900090E0880F991FFC01E859FF4FA591B49193
:1007A000FC01EE58FF4F659174918FB7F8949C91BE
:1007B000F92AFC928FBF4115510509F056C080E01F
:1007C0000E94870082E191E00E94010260913F0156
:1007D00070914001072E000C880B990B97FF8BC07E
:1007E0000E94520281E291E00E94010260913D016B
:1007F00070913E01072E000C880B990B97FF7FC06C
:100800000E94520281E391E00E9401020E94DC01F9
:100810004B015C0184E6C82ED12CE12CF12C0E9406
:10082000DC01681979098A099B09683E73408105D2
:100830009105A8F3F1E0CF1AD108E108F10828EEFC
:10084000820E23E0921EA11CB11CC114D104E1044C
:10085000F10429F7209709F46ECF0E94390188230B
:1008600009F469CF0E94000066CF4F3F510511F493
:1008700081E0A6CFF8018491833019F140F48130F2
:10088000B1F08230C9F04038510594F798CF8730E5
:1008900011F1883041F18430B1F78091800080629D
:1008A0008093800030938B0020938A008BCF84B597
:1008B000806884BD27BD86CF84B5806284BD28BD95
:1008C00081CF809180008068809380003093890080
:1008D0002093880077CF8091B00080688093B0002B
:1008E0002093B3006FCF8091B00080628093B000FE
:1008F0002093B40067CF4AE00E940E0273CF4AE013
:100900000E940E027FCFE1E4F1E01382128288EEB2
:1009100093E0A0E0B0E084839583A683B78384E06E
:1009200091E09183808385EC90E09587848784ECC7
:1009300090E09787868780EC90E0918B808B81ECAC
:1009400090E0938B828B82EC90E0958B848B86EC8D
:1009500090E0978B868B118E128E138E148E0895D5
:10096000052E97FB1EF400940E94C70457FD07D084
:100970000E94CF0407FC03D04EF40C94C70450959A
:100980004095309521953F4F4F4F5F4F089590957B
:100990008095709561957F4F8F4F9F4F0895A1E28D
:1009A0001A2EAA1BBB1BFD010DC0AA1FBB1FEE1FE9
:1009B000FF1FA217B307E407F50720F0A21BB30B34
:1009C000E40BF50B661F771F881F991F1A9469F7B0
:1009D00060957095809590959B01AC01BD01CF010C
:1009E0000895A29FB001B39FC001A39F700D811D08
:1009F0001124911DB29F700D811D1124911D089528
:100A00000E94F104B7FF0895821B930B0895EE0F27
:0E0A1000FF1F0590F491E02D0994F894FFCF9C
:100A1E00000000006F01CF00FC00BC012D010B0196
:100A2E001F0173656E736F722076616C75653A2067
:100A3E000009204F757470757456616C75653A2097
:040A4E00000D0A008D
:00000001FF
