:100000000C945D000C9485000C9485000C94850084
:100010000C9485000C9485000C9485000C9485004C
:100020000C9485000C9485000C9485000C9485003C
:100030000C9485000C9485000C9485000C9485002C
:100040000C94E0020C9485000C94AE020C9488028F
:100050000C9485000C9485000C9485000C9485000C
:100060000C9485000C9485000000000024002700FB
:100070002A0000000000250028002B0004040404CE
:100080000404040402020202020203030303030342
:10009000010204081020408001020408102001021F
:1000A00004081020000000080002010000030407FB
:1000B00000000000000000003B0411241FBECFEF31
:1000C000D8E0DEBFCDBF11E0A0E0B1E0E4E2F9E0AE
:1000D00002C005900D92AE32B107D9F721E0AEE231
:1000E000B1E001C01D92A63DB207E1F710E0CDE5F9
:1000F000D0E004C02197FE010E948A04CC35D107CC
:10010000C9F70E942A030C9490040C940000EDEAB5
:10011000F0E02491E9E9F0E09491E5E8F0E0E49181
:10012000EE23C9F0222339F0233001F1A8F4213065
:1001300019F1223029F1F0E0EE0FFF1FEE58FF4FCA
:10014000A591B4912FB7F894EC91811126C09095A8
:100150009E239C932FBF08952730A9F02830C9F023
:10016000243049F7209180002F7D03C0209180002A
:100170002F7720938000DFCF24B52F7724BDDBCFEE
:1001800024B52F7DFBCF2091B0002F772093B000B6
:10019000D2CF2091B0002F7DF9CF9E2BDACFAF9236
:1001A000BF92CF92DF92EF92FF920F931F93CF9364
:1001B000DF936C017B018B01040F151FEB015E01C6
:1001C000AE18BF08C017D10759F06991D601ED915B
:1001D000FC910190F081E02DC6010995892B79F7FA
:1001E000C501DF91CF911F910F91FF90EF90DF90AC
:1001F000CF90BF90AF900895FC01538D448D252F73
:1002000030E0842F90E0821B930B541710F0CF96B0
:10021000089501970895FC01918D828D981761F0E2
:10022000A28DAE0FBF2FB11D5D968C91928D9F5FF9
:100230009F73928F90E008958FEF9FEF0895FC01D8
:10024000918D828D981731F0828DE80FF11D858D8B
:1002500090E008958FEF9FEF0895FC01918D228D1E
:10026000892F90E0805C9F4F821B91098F739927A3
:10027000089589E391E00E942D0121E0892B09F482
:1002800020E0822F089580E090E0892B29F00E94E1
:10029000390181110C9400000895FC01A48DA80F70
:1002A000B92FB11DA35ABF4F2C91848D90E00196B8
:1002B0008F739927848FA689B7892C93A089B189D8
:1002C0008C91837080648C93938D848D981306C079
:1002D0000288F389E02D80818F7D80830895EF92DD
:1002E000FF920F931F93CF93DF93EC0181E0888FF0
:1002F0009B8D8C8D98131AC0E889F989808185FFC0
:1003000015C09FB7F894EE89FF896083E889F98961
:1003100080818370806480839FBF81E090E0DF9163
:10032000CF911F910F91FF90EF900895F62E0B8DB6
:1003300010E00F5F1F4F0F731127E02E8C8D8E1171
:100340000CC00FB607FCFACFE889F989808185FFD8
:10035000F5CFCE010E944D01F1CFEB8DEC0FFD2FBB
:10036000F11DE35AFF4FF0829FB7F8940B8FEA8993
:10037000FB8980818062CFCFCF93DF93EC01888DA2
:100380008823B9F0AA89BB89E889F9898C9185FD10
:1003900003C0808186FD0DC00FB607FCF7CF8C919E
:1003A00085FFF2CF808185FFEDCFCE010E944D0108
:1003B000E9CFDF91CF9108958E3009F480E0877006
:1003C000806480937C0080917A00806480937A00BE
:1003D00080917A0086FDFCCF809178009091790021
:1003E00008953FB7F8948091330190913401A09122
:1003F0003501B091360126B5A89B05C02F3F19F0F5
:100400000196A11DB11D3FBFBA2FA92F982F882794
:10041000BC01CD01620F711D811D911D42E0660F6F
:10042000771F881F991F4A95D1F70895FC01019005
:100430000020E9F73197AF01481B590BBC0189E354
:1004400091E00C94CF008F929F92AF92BF920F9346
:100450001F93CF93DF93CDB7DEB7A1970FB6F89474
:10046000DEBF0FBECDBF19A2423008F44AE08E01B4
:100470000F5D1F4F842E912CB12CA12CA50194014E
:100480000E946804E62FB901CA01EA30F4F4E05D85
:10049000D801EE938D01232B242B252B79F790E0A7
:1004A00080E0109719F0CD010E941602A1960FB6B8
:1004B000F894DEBF0FBECDBFDF91CF911F910F919A
:1004C000BF90AF909F908F900895E95CE1CFCF925D
:1004D000DF92EF92FF92CF93DF936B017C016DE28D
:1004E00089E391E00E946F01EC0166277727CB0139
:1004F0006C197D098E099F094AE00E9423028C0F26
:100500009D1FDF91CF91FF90EF90DF90CF900895E6
:100510001F920F920FB60F9211242F933F934F9378
:100520005F936F937F938F939F93AF93BF93EF935B
:10053000FF9389E391E00E944D01FF91EF91BF91FC
:10054000AF919F918F917F916F915F914F913F916B
:100550002F910F900FBE0F901F9018951F920F9222
:100560000FB60F9211242F938F939F93EF93FF93C6
:10057000E0914901F0914A018081E0914F01F091B1
:10058000500182FD1BC09081809152018F5F8F735B
:1005900020915301821741F0E0915201F0E0E75CB5
:1005A000FE4F958F80935201FF91EF919F918F9114
:1005B0002F910F900FBE0F901F9018958081F4CF50
:1005C0001F920F920FB60F9211242F933F938F9388
:1005D0009F93AF93BF9380912F0190913001A09191
:1005E0003101B091320130912E0123E0230F2D37DC
:1005F00058F50196A11DB11D20932E0180932F0166
:1006000090933001A0933101B09332018091330176
:1006100090913401A0913501B09136010196A11D50
:10062000B11D8093330190933401A0933501B093B1
:100630003601BF91AF919F918F913F912F910F9074
:100640000FBE0F901F90189526E8230F0296A11D4C
:10065000B11DD2CF789484B5826084BD84B58160A9
:1006600084BD85B5826085BD85B5816085BD80917D
:100670006E00816080936E001092810080918100F5
:1006800082608093810080918100816080938100ED
:10069000809180008160809380008091B1008460AF
:1006A0008093B1008091B00081608093B000809110
:1006B0007A00846080937A0080917A0082608093CF
:1006C0007A0080917A00816080937A0080917A002C
:1006D000806880937A001092C100E0914901F09106
:1006E0004A0182E08083E0914501F0914601108249
:1006F000E0914701F09148018FEC80831092510105
:10070000E0914D01F0914E0186E08083E0914B0134
:10071000F0914C01808180618083E0914B01F091E8
:100720004C01808188608083E0914B01F0914C0105
:10073000808180688083E0914B01F0914C01808141
:100740008F7D8083E9E9F0E02491E5E8F0E0849191
:10075000882399F090E0880F991FFC01E859FF4F1A
:10076000A591B491FC01EE58FF4F859194918FB7FC
:10077000F894EC91E22BEC938FBFC0E0D0E001E065
:1007800010E08EE00E94DC01863323E092070CF03B
:100790005EC081E00E94870010933801009337010A
:1007A0008EE00E94DC017C0189E00E94DC0182E194
:1007B00091E00E941602B701FF0C880B990B97FF7E
:1007C00052C00E9467028DE191E00E941602609182
:1007D000370170913801072E000C880B990B97FF99
:1007E00046C00E9467028BE291E00E9416020E94BE
:1007F000F1014B015C0184EFC82EDD24D394E12C80
:10080000F12C0E94F101681979098A099B09683E57
:10081000734081059105A8F381E0C81AD108E10869
:10082000F10828EE820E23E0921EA11CB11CC11417
:10083000D104E104F10429F7209709F4A2CF0E9422
:100840003901882309F49DCF0E9400009ACF863396
:10085000934009F4A5CF80E00E94870010923801F0
:10086000109237019DCF4AE00E942302ACCF4AE0AC
:100870000E942302B8CFE9E3F1E01382128288EEEE
:1008800093E0A0E0B0E084839583A683B78384E0FF
:1008900091E09183808385EC90E09587848784EC58
:1008A00090E09787868780EC90E0918B808B81EC3D
:1008B00090E0938B828B82EC90E0958B848B86EC1E
:1008C00090E0978B868B118E128E138E148E089566
:1008D000A1E21A2EAA1BBB1BFD010DC0AA1FBB1F44
:1008E000EE1FFF1FA217B307E407F50720F0A21BB6
:1008F000B30BE40BF50B661F771F881F991F1A9423
:1009000069F760957095809590959B01AC01BD014C
:10091000CF010895EE0FFF1F0590F491E02D09948B
:04092000F894FFCF79
:10092400000000006F01CF00FC00BC012D010B0191
:100934001F014C44522076616C75653A00202C4CA2
:0E0944004544205374617475733A000D0A0027
:00000001FF
